{
  "_format": "hh-sol-artifact-1",
  "contractName": "SafetyComplianceAnchor",
  "sourceName": "contracts/SafetyComplianceAnchor.sol",
  "abi": [
    {
      "inputs": [
        {
          "internalType": "address",
          "name": "_submitter",
          "type": "address"
        }
      ],
      "stateMutability": "nonpayable",
      "type": "constructor"
    },
    {
      "anonymous": false,
      "inputs": [
        {
          "indexed": true,
          "internalType": "uint256",
          "name": "batchId",
          "type": "uint256"
        },
        {
          "indexed": false,
          "internalType": "bytes32",
          "name": "merkleRoot",
          "type": "bytes32"
        },
        {
          "indexed": false,
          "internalType": "uint256",
          "name": "timestamp",
          "type": "uint256"
        }
      ],
      "name": "AnchorSubmitted",
      "type": "event"
    },
    {
      "inputs": [],
      "name": "anchorCount",
      "outputs": [
        {
          "internalType": "uint256",
          "name": "",
          "type": "uint256"
        }
      ],
      "stateMutability": "view",
      "type": "function"
    },
    {
      "inputs": [
        {
          "internalType": "uint256",
          "name": "",
          "type": "uint256"
        }
      ],
      "name": "anchors",
      "outputs": [
        {
          "internalType": "bytes32",
          "name": "merkleRoot",
          "type": "bytes32"
        },
        {
          "internalType": "uint256",
          "name": "timestamp",
          "type": "uint256"
        },
        {
          "internalType": "uint256",
          "name": "batchId",
          "type": "uint256"
        }
      ],
      "stateMutability": "view",
      "type": "function"
    },
    {
      "inputs": [],
      "name": "authorizedSubmitter",
      "outputs": [
        {
          "internalType": "address",
          "name": "",
          "type": "address"
        }
      ],
      "stateMutability": "view",
      "type": "function"
    },
    {
      "inputs": [
        {
          "internalType": "uint256",
          "name": "_batchId",
          "type": "uint256"
        }
      ],
      "name": "getAnchor",
      "outputs": [
        {
          "internalType": "bytes32",
          "name": "",
          "type": "bytes32"
        },
        {
          "internalType": "uint256",
          "name": "",
          "type": "uint256"
        },
        {
          "internalType": "uint256",
          "name": "",
          "type": "uint256"
        }
      ],
      "stateMutability": "view",
      "type": "function"
    },
    {
      "inputs": [
        {
          "internalType": "bytes32",
          "name": "_merkleRoot",
          "type": "bytes32"
        }
      ],
      "name": "submitAnchor",
      "outputs": [],
      "stateMutability": "nonpayable",
      "type": "function"
    },
    {
      "inputs": [
        {
          "internalType": "uint256",
          "name": "_batchId",
          "type": "uint256"
        },
        {
          "internalType": "bytes32",
          "name": "_expectedRoot",
          "type": "bytes32"
        }
      ],
      "name": "verifyRoot",
      "outputs": [
        {
          "internalType": "bool",
          "name": "",
          "type": "bool"
        }
      ],
      "stateMutability": "view",
      "type": "function"
    }
  ],
  "bytecode": "0x608060405234801561001057600080fd5b506040516107de3803806107de833981810160405281019061003291906100dc565b80600260006101000a81548173ffffffffffffffffffffffffffffffffffffffff021916908373ffffffffffffffffffffffffffffffffffffffff16021790555050610109565b600080fd5b600073ffffffffffffffffffffffffffffffffffffffff82169050919050565b60006100a98261007e565b9050919050565b6100b98161009e565b81146100c457600080fd5b50565b6000815190506100d6816100b0565b92915050565b6000602082840312156100f2576100f1610079565b5b6000610100848285016100c7565b91505092915050565b6106c6806101186000396000f3fe608060405234801561001057600080fd5b50600436106100625760003560e01c80630be754991461006757806334f96c8c14610085578063368b733e146100a35780634c7df18f146100d5578063b0cd480214610107578063d75da35414610137575b600080fd5b61006f610153565b60405161007c91906103a7565b60405180910390f35b61008d610179565b60405161009a91906103db565b60405180910390f35b6100bd60048036038101906100b89190610427565b61017f565b6040516100cc9392919061046d565b60405180910390f35b6100ef60048036038101906100ea9190610427565b6101a9565b6040516100fe9392919061046d565b60405180910390f35b610121600480360381019061011c91906104d0565b610209565b60405161012e919061052b565b60405180910390f35b610151600480360381019061014c9190610546565b61022b565b005b600260009054906101000a900473ffffffffffffffffffffffffffffffffffffffff1681565b60015481565b60006020528060005260406000206000915090508060000154908060010154908060020154905083565b60008060008060008086815260200190815260200160002060405180606001604052908160008201548152602001600182015481526020016002820154815250509050806000015181602001518260400151935093509350509193909250565b6000816000808581526020019081526020016000206000015414905092915050565b600260009054906101000a900473ffffffffffffffffffffffffffffffffffffffff1673ffffffffffffffffffffffffffffffffffffffff163373ffffffffffffffffffffffffffffffffffffffff16146102bb576040517f08c379a00000000000000000000000000000000000000000000000000000000081526004016102b2906105d0565b60405180910390fd5b60006001549050604051806060016040528083815260200142815260200182815250600080838152602001908152602001600020600082015181600001556020820151816001015560408201518160020155905050600160008154809291906103239061061f565b9190505550807f1e802a2c073798ffd112f7b378ea99bde10fde28e7de32d4d477cafb257cdf18834260405161035a929190610667565b60405180910390a25050565b600073ffffffffffffffffffffffffffffffffffffffff82169050919050565b600061039182610366565b9050919050565b6103a181610386565b82525050565b60006020820190506103bc6000830184610398565b92915050565b6000819050919050565b6103d5816103c2565b82525050565b60006020820190506103f060008301846103cc565b92915050565b600080fd5b610404816103c2565b811461040f57600080fd5b50565b600081359050610421816103fb565b92915050565b60006020828403121561043d5761043c6103f6565b5b600061044b84828501610412565b91505092915050565b6000819050919050565b61046781610454565b82525050565b6000606082019050610482600083018661045e565b61048f60208301856103cc565b61049c60408301846103cc565b949350505050565b6104ad81610454565b81146104b857600080fd5b50565b6000813590506104ca816104a4565b92915050565b600080604083850312156104e7576104e66103f6565b5b60006104f585828601610412565b9250506020610506858286016104bb565b9150509250929050565b60008115159050919050565b61052581610510565b82525050565b6000602082019050610540600083018461051c565b92915050565b60006020828403121561055c5761055b6103f6565b5b600061056a848285016104bb565b91505092915050565b600082825260208201905092915050565b7f556e617574686f72697a65640000000000000000000000000000000000000000600082015250565b60006105ba600c83610573565b91506105c582610584565b602082019050919050565b600060208201905081810360008301526105e9816105ad565b9050919050565b7f4e487b7100000000000000000000000000000000000000000000000000000000600052601160045260246000fd5b600061062a826103c2565b91507fffffffffffffffffffffffffffffffffffffffffffffffffffffffffffffffff820361065c5761065b6105f0565b5b600182019050919050565b600060408201905061067c600083018561045e565b61068960208301846103cc565b939250505056fea26469706673582212204b62ca264d4b3bfcb5f5fc131fef8c005782d964739fe744501557e72824353f64736f6c63430008130033",
  "linkReferences": {},
  "deployedLinkReferences": {}
}